:1000000065C1000094C1000092C1000090C10000D1
:100010008EC100008CC100008AC1000088C10000B0
:1000200086C1000084C1000082C1000080C10000C0
:100030007EC100007CC100007AC1000078C10000D0
:1000400076C1000074C1000072C1000070C10000E0
:100050006EC100006CC100006AC100000C948416DF
:1000600066C100000C94E41F0C94BB1F60C100002B
:100070005EC100005CC100005AC1000058C1000010
:1000800056C1000054C1000052C1000050C1000020
:100090004EC100004CC100004AC1000048C1000030
:1000A00046C1000044C1000042C1000040C1000040
:1000B0003EC100003CC100003AC1000038C1000050
:1000C00036C1000034C1000032C100000C94851F0D
:1000D0000C945C1F2CC100002AC1000028C1000044
:1000E00026C10000F105F105B306B30650079607D7
:1000F0001E09F40AF40AF40AF40AF40AF40AF40AE7
:10010000C7075008EC08F40AF40AF40AF40A2509AF
:1001100089099B159E158D1591159715D515A21555
:10012000A615AC15B015B415BA15BE15C215D51562
:10013000C815CC15D015A726C726F82611273427B1
:1001400045277227A527AE27C327E5274E1B4E1B41
:100150006C1B6C1B771B771B7A1B771B771B771B22
:10016000771B771B771B771B771B771B851B771BF1
:10017000771B771B771B4B1B6C1BD91BD91BF81BE1
:10018000F81B331C331C331C331C331C331C331C33
:10019000331C331C331C081C081C261C331C331C4A
:1001A000331C331C331CF81B0000200023002600E6
:1001B00029002C002F00320000010000030106017D
:1001C000090100000A0B02090C0D0E0807030401C7
:1001D000000000000000000000000000000000001F
:1001E00000000000000000000000000000001211EC
:1001F00010000000000000000000000000000000EF
:100200000000000000000000000021002400270082
:100210002A002D0030003300010100000401070115
:100220000A01010210202008081020401020408000
:1002300002010201080402010102040810204080AA
:100240008040201008040201800402018040201038
:100250000804020108040201010204081020408081
:10026000010204081020408005050505070508085F
:100270000808020202020A0A080804040404010130
:100280000101010101010303030303030303040745
:1002900007070C0C0C0C0C0C0C0C020202020606DC
:1002A0000606060606060B0B0B0B0B0B0B0B0000D2
:1002B0002200250028002B002E003100340002010E
:1002C0000000050108010B015B284F2811241FBE07
:1002D000CFEFD1E2DEBFCDBF00E00CBF16E0A0E063
:1002E000B2E0E2E8FDE500E00BBF02C007900D922E
:1002F000A833B107D9F729E0A8E3B6E001C01D9201
:10030000AB32B207E1F711E0C5E6D1E000E006C08C
:1003100021970109802FFE010E94DD29C436D107F3
:1003200080E00807A9F70E94EC220C94B02E68CE5A
:10033000CF93DF93DC015A96CD91DC915B978A8550
:100340009B85DC01ED91FC910084F185E02D1995F0
:10035000892B51F08A859B85DC01ED91FC9102840B
:10036000F385E02D1995EBCF80E090E0DF91CF9100
:100370000895DC015A96ED91FC915B9782859385F7
:10038000DC01ED91FC910488F589E02D1994EF9240
:10039000FF920F931F93CF93DF9300D000D0CDB780
:1003A000DEB7FC01A28DB38D1A968D919C911B979F
:1003B000FC0120813181F901E684F78412964D9188
:1003C0005C91139723E433E03A83298316960D91C9
:1003D0001D912D913C9119970B831C832D833E8396
:1003E000BE016F5F7F4FF701199521E030E0892B47
:1003F00011F020E030E088279927821B930B269686
:100400000FB6F894DEBF0FBECDBFDF91CF911F9125
:100410000F91FF90EF900895FA01DB019C9180818C
:10042000981305C011969C918181981749F08FEE21
:100430009BE29093200980931F098FEF9FEF08950F
:100440008281882319F083818111F1CF80E090E0CF
:100450000895CA010895DC015A96ED91FC915B97CD
:1004600082859385DC01ED91FC910288F389E02D72
:100470001995BC01990F880B990B0895DC015A96C8
:10048000ED91FC915B9782859385DC01ED91FC9168
:100490000280F381E02D1995BC0180E090E0089581
:1004A0009B0126503109FC0134832583CB0108953B
:1004B000FC01208130E0322F22278181A901480FE1
:1004C000511DCA010895DC01FB0115968C91159709
:1004D000808314968C9114978183128213828C915D
:1004E000868312968C91878388E090E008950F931D
:1004F0001F93CF93DF93F801EC01AA8DBB8DCD91B3
:10050000DC911197CF3F7FEFD70729F02196119605
:10051000DC93CE9303C011961C921E9211967C918F
:10052000119770837C91718312821382DC018C910C
:100530008683678350874187328723878CE090E0EA
:10054000DF91CF911F910F910895683F710518F0C9
:100550006F3F710531F4FC017183608380E090E0AE
:10056000089586E190E09093200980931F098FEF12
:100570009FEF0895CF93DF93EC018A8D9B8D0E94AE
:100580007D2ACE01DF91CF910C947D2A6F927F92CC
:100590008F929F92AF92BF92CF92DF92EF92FF9293
:1005A0000F931F93CF93DF93FA018901DC015A96D1
:1005B0006D907C905B973097C9F0208131814281AA
:1005C0005381A8EEB3E00E94A2296B017C016481F3
:1005D00075818681978128EE33E040E050E00E94EB
:1005E000AC29C20ED31EE41EF51E03C0C12CD12CB3
:1005F00076010E9478164B015C01F3018285938598
:10060000DC01ED91FC910084F185E02D1995EC0160
:1006100080179107CCF40E947816DC01CB01881971
:100620009909AA09BB098C159D05AE05BF0560F4A3
:10063000F30182859385DC01ED91FC910688F789B1
:10064000E02D19958111D9CF209749F484E790E0E6
:100650009093200980931F098FEF9FEF01C0CE0177
:10066000DF91CF911F910F91FF90EF90DF90CF908E
:10067000BF90AF909F908F907F906F90089500975C
:1006800049F0DC015896ED91FC91599700A0F1A139
:10069000E02D199486E190E09093200980931F0942
:1006A0008FEF9FEF0895CF93DF93EC012885398575
:1006B0004A855B85A8EEB3E00E94A2290E944016FD
:1006C0008C859D858230910538F0880F991F880FA1
:1006D000991F05970197F1F7DF91CF9108954F92F8
:1006E0005F926F927F928F929F92AF92BF92CF92C2
:1006F000DF92EF92FF920F931F93CF93DF93CDB7CB
:10070000DEB72A970FB6F894DEBF0FBECDBF7C01CF
:100710004B013A01DC015896ED91FC915997028109
:1007200013810F5F1F4F452BB9F018968D919D9146
:100730000D90BC91A02D89839A83AB83BC83F70174
:1007400084859585A685B7858D839E83AF83B8877D
:10075000CE0101962C0102C0412C512CC12CD12C70
:10076000A12CB12CD7015896ED91FC915997011508
:10077000110509F4FFC002A0F3A1E02D9801A20128
:10078000BE01675F7F4FC70119950196F9F4F70124
:10079000868181FFC1C000911F0910912009043793
:1007A000110529F4C7017FDFC70169DF0AC0023FD5
:1007B000FDE21F0731F4C7010E947F1AC7010E94A2
:1007C0008B1A1093200900931F09A6C0D7015896D1
:1007D000ED91FC9159970688F789E02DA801B401A5
:1007E0006A0D7B1DC70119956115710539F482EFFA
:1007F0009DE29093200980931F0904C06F3FBFEFD3
:100800007B0789F4F701868181FF86C000911F096B
:1008100010912009023FFDE21F0769F20F36110512
:1008200009F07AC0C8CFA60EB71E061B170B09F039
:1008300079C0C114D10429F021E0C216D10489F194
:1008400091CFD7015896ED91FC9159970280F38191
:10085000E02DE80DF91D80816114710499F490E098
:10086000873091050CF48EC09C012F503109223045
:10087000310508F48AC08631910509F48CC0479788
:1008800081F486C0813138F48F3008F04FC0855034
:10089000823020F44BC0863109F47DC001E010E0C5
:1008A0007CC0D7015896ED91FC915997A281B381F4
:1008B000A80DB91D8C916114710461F48F30C0F0E2
:1008C000813128F08731A1F419960C910EC015964C
:1008D0000C910BC090E0853091052CF08131910591
:1008E00011F0479729F411960C91802F90E002C0E7
:1008F00080E090E004811581080F191F9501200FF9
:10090000311F86819781821793074CF48FEE9BE20B
:100910009093200980931F098FEF9FEF42C022E040
:10092000C22ED12C1016110634F01CCFCC24C39447
:10093000D12C04E010E0F701408951896289738964
:1009400084899589A689B789411551056105710585
:1009500029F40097A105B10509F404CF49835A830E
:100960006B837C838D839E83AF83B887CE01019692
:100970002C01F8CE008CF18DE02DA501B401C7014A
:1009800019950FC004E010E008C005E010E005C0B4
:1009900009E010E002C006E010E0CC24C394D12CA2
:1009A000CACF2A960FB6F894DEBF0FBECDBFDF9137
:1009B000CF911F910F91FF90EF90DF90CF90BF905C
:1009C000AF909F908F907F906F905F904F90089521
:1009D00040E050E084CEAF92BF92CF92DF92EF9290
:1009E000FF920F931F93CF93DF93EC016B01E88D80
:1009F000F98D0088F189E02DBA01C60119957C01B5
:100A0000E88DF98D0288F389E02DA701B601CE01AA
:100A100019958B010F3F8FEF1807E9F48E8181FF45
:100A20001AC0A0901F09B090200982EFA8168DE28D
:100A3000B80649F4CE010E947F1ACE0134DECE0101
:100A40000E948B1A04C0CE012EDECE0118DEB092B9
:100A50002009A0921F098E8181FD05C01016110684
:100A60003CF0C80112C00F3F8FEF180749F2F6CFD4
:100A7000E016F10649F08FEE9BE2909320098093F7
:100A80001F098FEF9FEF01C0C701DF91CF911F9129
:100A90000F91FF90EF90DF90CF90BF90AF900895AF
:100AA0002F923F924F925F926F927F928F929F927E
:100AB000AF92BF92CF92DF92EF92FF920F931F936C
:100AC000CF93DF93CDB7DEB7C851D2400FB6F894BD
:100AD000DEBF0FBECDBFFC01A281B381109711F123
:100AE0005C014E01FBEF8F1AFEEF9F0A5896ED91C5
:100AF000FC9159970488F589E02DB401CD01199531
:100B0000181619060CF09FC5D50112962D903C9031
:100B10001397C55FDD4F99838883CB50D240211452
:100B2000310419F486E190E08BC3D1015896ED9120
:100B3000FC915997C280D380A4E0B1E0AC0FBD1FF7
:100B4000AC0DBD1D8C91282F30E0CD5EDD4F39837B
:100B50002883C351D240A4014C0D5D1DC15FDD4F00
:100B600059834883CF50D240DA01FC900F2D10E01A
:100B7000A6E0B1E0AC0FBD1FAC0DBD1D4C90512CDB
:100B8000542C4424A7E0B1E0AC0FBD1FAC0DBD1D3B
:100B90008C91480E511C3E01BBEF6B1ABDEF7B0AD6
:100BA000D30111963C932E9313961C930E93129798
:100BB0000684F785E02DBE01655F7D4FC401199560
:100BC000F301958384838F2D90E0FC013197E73109
:100BD000F10508F009C58827EE58FF4F8F4F0C9498
:100BE000DD290230110581F4D5011A964D915C91F1
:100BF0001B9718962D913C9119975696AD90BC90E5
:100C000057978BE493E009C0F50146815781248111
:100C10003581A488B5888BE593E0E8E0F1E0EC0F3E
:100C2000FD1FEC0DFD1DE080F12CFE2CEE24E9E013
:100C3000F1E0EC0FFD1FEC0DFD1D6081E60EF11CD7
:100C4000B70161507109603D7740B0F027E02F9304
:100C500020ED2F939F938F93FF92EF9289E893E07B
:100C60009F938F931F9281E08F9321E030E02C0FB0
:100C70003D1F3F932F93BFC06201C41AD50AD7FC12
:100C800009C047018C0C9D1C28153905ACF4E40CF7
:100C9000F51C01C072019F938F93FF92EF9281EB3D
:100CA00093E09F938F931F921F9261E070E06C0F0F
:100CB0007D1F7F936F9334C4D1015896ED91FC91C1
:100CC00059970484F585E02DBE016F5F7F4FC30106
:100CD00019958C010F5F1F4FE1E0F0E0EC0FFD1F55
:100CE000E80FF91F41E0970127703327232B09F400
:100CF00040E0A3E0F594E794AA95E1F7E40EE082E2
:100D0000F501EC0DFD1D20E030E080E090E0AF014A
:100D10004A195B0948155905CCF4419150E0082E59
:100D200002C0440F551F0A94E2F7242B352B87305D
:100D3000910551F4A1E0B0E0AC0FBD1FA00FB11FB1
:100D40002C930F5F1F4FDFCF0196E1CF892B09F462
:100D500067C4E1E0F0E0EC0FFD1FE00FF11F20831E
:100D60000F5F1F4F5DC40430110551F4F501468536
:100D7000578524853585008D118D85E693E00FC05C
:100D8000D50152964D915C91539750962D913C917F
:100D900051975A960D911C915B978AE793E0E8E092
:100DA000F1E0EC0FFD1FEC0DFD1DE080F12CFE2CA1
:100DB000EE24E9E0F1E0EC0FFD1FEC0DFD1D60817C
:100DC000E60EF11CB70161507109FE0131965F0119
:100DD0006D377105D0F01F922DE72F939F938F935E
:100DE000FF92EF9289E893E09F938F931F9281E0A7
:100DF0008F93FF93EF931F9283E08F937F926F9275
:100E00003F922F920E94B31A05C46201C41AD50AF8
:100E10004601D7FC08C0CE0CDF1C2C153D058CF418
:100E2000E40CF51C01C072019F938F93FF92EF9227
:100E300081EB93E09F938F931F921F92BF92AF928B
:100E40006FC3D1015896ED91FC9159970484F585B3
:100E5000E02DB501C3011995F501E80FF91FEE0C5E
:100E6000E0820196F501E80FF91FD401AA0FBB1F1C
:100E7000AD01400F511F8F010A191B098C149D04ED
:100E80000CF0CEC3DA0111962C91119720838C912E
:100E90004E5F5F4F8183BFEF8B1A9B0A3296EBCF79
:100EA000F50186819781A201481B590BCE0101965D
:100EB00057FD05C024813581421753072CF05F92FE
:100EC0004F9223ED33E0D8C1E8E0F1E0EC0FFD1FD5
:100ED000EC0DFD1D208130E0322F2227E9E0F1E00A
:100EE000EC0FFD1FEC0DFD1D6081260F311D21153E
:100EF0006FEF360719F02115310569F4D5015496C5
:100F0000ED91FC915597E40FF51F41E0232B09F477
:100F100040E04083F3C15F924F923F932F932CEFB9
:100F200033E03F932F931F921F92E0C0D50152965A
:100F30008D919C9153979201281B390BCE010196FC
:100F400037FD96C150964D915C9151972417350706
:100F50000CF08EC1220F331FD5015A96ED91FC91F2
:100F60005B97E20FF31FA8E0B1E0AC0FBD1FAC0D23
:100F7000BD1D2C9130E0322F2227A9E0B1E0AC0F4B
:100F8000BD1FAC0DBD1D4C91240F311DB5C1E8E056
:100F9000F1E0EC0FFD1FEC0DFD1DE080F12CFE2CAF
:100FA000EE24E9E0F1E0EC0FFD1FEC0DFD1D80816A
:100FB000E80EF11CC7010197803B9740A0F087E045
:100FC0008F9380EB8F93FF92EF9288E694E09F934C
:100FD0008F931F9281E08F93E1E0F0E0EC0FFD1F13
:100FE000FF93EF9385C0D50116968D919C9117972D
:100FF0009201281B390B37FD0DC0B701620F731F1B
:1010000014968D919C911597861797079CF4E40C84
:10101000F51C01C07201FF92EF928CE994E09F935E
:101020008F931F921F92E1E0F0E0EC0FFD1FFF9302
:10103000EF9328C146E0C40ED11CD50154960D9102
:101040001C915597200F311FF90140E050E081E0DD
:1010500090E08C0F9D1FC80ED91ECF01801B910BF5
:101060008617970708F099C0CF01821B930BA3E066
:1010700096958795AA95E1F78C0D9D1D8C5F9E4FE7
:10108000DC018C9190E0042E02C0959587950A941E
:10109000E2F7817081934F5F5F4F47705527DDCF37
:1010A000E8E0F1E0EC0FFD1FEC0DFD1DE080F12C00
:1010B000FE2CEE24E9E0F1E0EC0FFD1FEC0DFD1D30
:1010C0008081E80EF11CC70101978B379105D0F0A4
:1010D0001F928BE78F93FF92EF9286EC94E09F93A1
:1010E0008F931F9281E08F93CE0101969F938F93F0
:1010F0001F9283E08F937F926F923F922F920E9474
:10110000B31A88C2D50152968D919C915397920142
:10111000281B390B37FD1BC0A701420F531F5096E8
:101120008D919C9151978417950774F0C15FDD4FA5
:10113000E881F981CF50D240B901660F771F681955
:1011400079096C197D090FC0E40CF51C01C072010E
:10115000FF92EF928FEF94E09F938F931F921F92D5
:10116000CE0101968DC024173507BCF4D5015A96DF
:101170008D919C915B97DC01AE0FBF1FA60FB71F2F
:10118000868190E0982F88271781810F911D8D937C
:101190009C932F5F3F4F3296E6CFD1015896ED9149
:1011A000FC9159970484F585E02DBE016F5F7F4F58
:1011B000C3011995A1E0B0E0AC0FBD1FA80FB91F86
:1011C000F401E80FF91F24E001900D922A95E1F750
:1011D0008C010C5F1F4F24C2D1015896ED91FC91F8
:1011E00059970484F585E02DBE016F5F7F4FC301E1
:1011F0001995FE01E80FF91F24EB2283FE01E80F89
:10120000F91F2FEF2383DC011396E1E0F0E0EC0FF0
:10121000FD1FAE0FBF1F28E0EEE2F5E001900D923A
:101220002A95E1F78C01055F1F4FE1E0F0E0EC0F3C
:10123000FD1FE80FF91F8AE08083F2C18DE690E080
:101240009093200980931F09FEC1D50152968D917C
:101250009C915397F201E81BF90BCE010196F7FD23
:1012600007C050962D913C915197E217F3076CF00F
:101270005F924F922AE334E03F932F931F921F9285
:101280009F938F931F9282E0BEC1EE0FFF1FD50187
:101290005A962D913C915B97E20FF31FAAE0B1E0C3
:1012A000AC0FBD1FAC0DBD1D2C9130E0322F22279D
:1012B000ABE0B1E0AC0FBD1FAC0DBD1D4C91240FD8
:1012C000311DA8E0B1E0AC0FBD1FAC0DBD1D4C91B0
:1012D00050E0542F4427A9E0B1E0AC0FBD1FAC0D86
:1012E000BD1D6C91460F511D60817181622773276E
:1012F000462357232427352731832083C55FDD4FBD
:1013000008811981CB50D240A801B4010E94EA2B78
:1013100087C1E8E0F1E0EC0FFD1FEC0DFD1DE08062
:10132000F12CFE2CEE24E9E0F1E0EC0FFD1FEC0DBA
:10133000FD1D8081F701E80FF11DC35FDD4FF983CB
:10134000E883CD50D240ECE0F1E0EC0FFD1FEC0D56
:10135000FD1D808190E0982F8827EDE0F1E0EC0FF3
:10136000FD1FEC0DFD1D2081AC01420F511D9A01A6
:10137000CA01019789379105B8F4C35FDD4F8881B1
:101380009981CD50D24001978D37910568F4EEE0F8
:10139000F1E0EC0FFD1FEC0DFD1D808190E0440F8E
:1013A000551F8417950759F11F928DE78F931F9250
:1013B00089E78F93C25FDD4F5881CE50D2405F9353
:1013C000C35FDD4F6881CD50D2406F933F932F9321
:1013D00087E395E09F938F931F9281E08F9381E045
:1013E00090E08C0F9D1F9F938F931F9283E08F93AC
:1013F0007F926F923F922F920E94B31A0BC1EAE044
:10140000F1E0EC0FFD1FEC0DFD1D808190E0982FA9
:101410008827EBE0F1E0EC0FFD1FEC0DFD1D408196
:10142000840F911DF501428953894201841A950A5E
:10143000CF5EDD4F99828882C151D240BC01641BCE
:10144000750BAB017B0197FCFAC0C35FDD4FA88130
:10145000B981CD50D240A80DB91DCB5EDD4FB98307
:10146000A883C551D240608971896A177B07D4F17E
:10147000F901E40FF51FC95EDD4FF983E883C75119
:10148000D2406E177F0774F1D1015896ED91FC910F
:1014900059970484F585E02DBE016F5F7F4FC3012E
:1014A00019958C010F5F1F4FE1E0F0E0EC0FFD1F7D
:1014B000E80FF91FC35FDD4F4880CD50D240440C88
:1014C0004082C15FDD4FE881F981CF50D240AE014B
:1014D0004B5F5E4F9701220F331F241B350B2C19D6
:1014E0003D0921C057FD04C0820F931F97FCA9C07E
:1014F000C35FDD4FE880F980CD50D240E40CF51C8D
:101500009F938F93FF92EF9283E895E09F938F9341
:101510001F921F9221E030E02C0F3D1F3F932F932D
:101520001F9282E0E7CDC95EDD4F48815981C751E6
:10153000D240E416F506C4F4D5015A964D915C915B
:101540005B97DA01AE0FBF1FA20FB31F428550E0B9
:10155000542F44276385460F511D4D935C93BFEF75
:10156000EB1AFB0A3296DFCFAE014F5F5F4FDA0115
:10157000A80FB91F9401220F331F241B350B281B02
:10158000390BCB5EDD4F68817981C551D240CF5E8A
:10159000DD4F88819981C151D240861797070CF0A1
:1015A0003FC0CD01820F931FF501428D538DFA018B
:1015B000E80FF91F818111968C9311970E5F1F4FD1
:1015C000808112968C931297CF5EDD4F48815981AE
:1015D000C151D2404F5F5F4FCF5EDD4F598348838B
:1015E000C151D2401296CDCF1F92FF9284ED95E06B
:1015F0009F938F931F9281E08F939E012F5F3F4FA8
:101600003F932F931F928F937F926F923F922F92CF
:101610000E94B31A8C010FB6F894DEBF0FBECDBF87
:10162000CD5EDD4FE881F981C351D240EF2B59F0F7
:10163000A801BE016F5F7F4FC101CDD904C077FF04
:1016400053CF72015DCFC85EDD4F0FB6F894DEBF99
:101650000FBECDBFDF91CF911F910F91FF90EF9003
:10166000DF90CF90BF90AF909F908F907F906F90C2
:101670005F904F903F902F900895CF93DF93EC01B0
:1016800087ED92E0998388838C899D89009711F07A
:101690000E947D2A8E899F89009711F00E947D2AE1
:1016A000888D998D009711F00E947D2A8A8D9B8DDF
:1016B000009711F00E947D2A8A819B81009721F07A
:1016C000DF91CF910C94731ADF91CF910895CF934E
:1016D000DF93EC01D2DFCE01DF91CF910C947D2A14
:1016E000CF93DF93EC0183EF92E0998388838F851A
:1016F0009889009711F00E947D2A8A819B8100972A
:1017000021F0DF91CF910C94731ADF91CF9108955E
:10171000CF93DF93EC01E4DFCE01DF91CF910C9406
:101720007D2A2BEF32E0FC0131832083D9CFCF9388
:10173000DF93EC01F6DFCE01DF91CF910C947D2A8F
:101740002BEE32E0FC0131832083CACFCF93DF93AD
:10175000EC01F6DFCE01DF91CF910C947D2A0F933F
:101760001F93CF93DF93EC018C01000F111F0D51DC
:10177000194FF801808191813BD5F80180819181D9
:1017800037D5CC0FDD1FCD53D94F79836883DF91D7
:10179000CF911F910F9108950F931F93CF93DF93D4
:1017A000EC018B01FC01EE0FFF1FE658F94F808121
:1017B00091810E94BF22CC0FDD1FC65CD94F1983D7
:1017C0000883DF91CF911F910F91089560E084E22B
:1017D0000E94D61560E085E20E94D61560E086E2A0
:1017E0000C94D61561E070E080E090E00E94401615
:1017F0008091BD069091BE06A091BF06B091C00633
:101800000196A11DB11D8093BD069093BE06A093C5
:10181000BF06B093C00689389341A105B10540F4D5
:101820008EE10E94311521E0892B19F020E001C0E2
:1018300021E0822F08951092BD061092BE061092EC
:10184000BF061092C00687E10E943115019789F406
:1018500088E10E943115019761F489E10E943115F8
:10186000019739F48AE10E943115019711F481E062
:101870000895B8DF811105C08EE10E943115892BD2
:1018800011F380E008958BE30E943115019791F4E4
:1018900083E00E943115019769F487E30E943115B6
:1018A000019741F489E30E943115019719F481E011
:1018B00090E0089580E090E00895EF92FF920F93FA
:1018C0001F93CF93DF93CDB7DEB7EC970FB6F894A5
:1018D000DEBF0FBECDBF8C018BE0EAE1F2E0DE019E
:1018E000529601900D928A95E1F788E0E5E2F2E0E8
:1018F000DE015D9601900D928A95E1F781E1EDE2BE
:10190000F2E0DE01119601900D928A95E1F7CE0189
:101910008B96A4D4CE01C196A1D4CE01C7969ED4F5
:1019200085E0093F180709F085C048E050E0BE0196
:10193000635E7F4F86E197E00E94481C86E197E056
:101940000E942F1D64E670E080E090E00E94401647
:1019500086E197E00E94811C8D3091052CF0682F64
:10196000CE018B9687D4F4CF60EB73E0CE018B96DB
:101970000E94F81668EE73E080E090E00E94401646
:1019800041E150E0BE016F5F7F4F86E197E00E942A
:10199000481C86E197E00E942F1D64E670E080E01D
:1019A00090E00E94401660EB73E0CE01C1960E9469
:1019B000F81686E197E00E94A31C892B61F086E16E
:1019C00097E00E94811C8D3091059CF3682FCE0119
:1019D000C19650D4F4CFCE01859640D48DA99EA94E
:1019E0000E9770F0E9A9FAA916851686BF01635F04
:1019F0007F4FCE0185960E94F816E9A9FAA91687AD
:101A000089A59AA5EDA0FEA0892B41F06CE076E0B7
:101A1000C7010E94F32B01E0892B09F000E0C70108
:101A20000E947D2A10E060EB73E0CE018B960E944D
:101A3000F81687C00E50164019F000E010E081C083
:101A40004BE050E0BE016E5E7F4F86E197E00E9462
:101A5000481C86E197E00E942F1D64E670E080E05C
:101A600090E00E94401686E197E00E94811C8D3034
:101A700091052CF0682FCE018B96FCD3F4CFCE01CC
:101A80008596ECD30FA518A901151105B9F00630FC
:101A9000110510F006E010E0EBA5FCA5E00FF11F2A
:101AA000F08010826BA57CA5CE0185960E94F81669
:101AB0008BA59CA5FC01E00FF11FF0828FA998ADCA
:101AC0000097A9F06DA17EA16115710571F049AD76
:101AD0005AAD29A53AA54217530738F00E94FC2BAE
:101AE00089A59AA59CAF8BAF10C00E947D2A8DA1BD
:101AF0009EA198AF8FAB8FA198A59AAF89AF89A50A
:101B00009AA59CAF8BAF1EA21DA28DA19EA10E9483
:101B10007D2A60EB73E0CE018B960E94F8168BADA8
:101B20009CAD892B09F489CF64E176E08FA998AD4B
:101B30000E94F32B31E020E0892B09F030E0032FE5
:101B4000122F8FA998AD0E947D2A89A99AA90E9477
:101B50007D2A8BA59CA50E947D2AC801EC960FB614
:101B6000F894DEBF0FBECDBFDF91CF911F910F91D3
:101B7000FF90EF90089586E174D7892B39F481E0C6
:101B800090E0909345068093440604C01092450669
:101B90001092440687E165D790934B0680934A06DE
:101BA00088E15FD790934F0680934E0689E159D71D
:101BB00090935306809352068AE153D79093570629
:101BC0008093560680916402882379F081E090E04A
:101BD00090935D0680935C0690935F0680935E060B
:101BE000909361068093600614C08BE33AD790937C
:101BF0005D0680935C0683E034D790935F06809304
:101C00005E0687E32ED7909361068093600689E392
:101C100028D790936306809362068EE122D7892BA2
:101C200021F080916402882339F081E090E0909364
:101C300075068093740608951092750610927406C6
:101C40000895EF92FF920F931F93CF93DF937C0140
:101C500092DF0AE316E0C0E0D0E0EC16FD0649F49E
:101C6000F80160817181E05CFF4F808191810E9469
:101C7000BF2221960E5F1F4FCF31D10571F7DF9143
:101C8000CF911F910F91FF90EF9008958DE190E01B
:101C9000D8DF8EE1E6D6892B31F08FEF9FEF90935E
:101CA000C2068093C1060895CF92DF92EF92FF9211
:101CB0000F931F93CF93DF936C017B018A018CE11B
:101CC00090E00E94E529EC018FEF9FEF9B838A83D0
:101CD0001D821C821F821E82188619861A861B8608
:101CE00080E291EAA7E0B0E08C879D87AE87BF874E
:101CF000188A198A1A8A1B8A8C8B9D8BAE8BBF8B94
:101D00008FEF90E0998388838EE392E0998F888F9C
:101D10008CE090E00E94E529FC019B8F8A8FD3869E
:101D2000C286D70112964D915D916D917C91159768
:101D300046835783608771871383028311821082E1
:101D4000CE01DF91CF911F910F91FF90EF90DF9027
:101D5000CF900895CF92DF92EF92FF920F931F934F
:101D6000CF93DF93CDB7DEB7C051D1400FB6F89413
:101D7000DEBF0FBECDBF7C016A01DC015896ED913C
:101D8000FC9159970284F385E02D8E010B5F1E4F65
:101D900021E030E0AB0163E070E01995AC01B801DF
:101DA000C7010E94EB04181619060CF043C041E06D
:101DB00050E0BE016F5F7F4FC7010E946F038F3FEE
:101DC000BFEF9B0719F48FEF9FEF34C09C01AE016A
:101DD0004F5F5F4FBE016B5F7E4FC7010E94021BCA
:101DE0008F3F2FEF920779F3D7015896ED91FC9131
:101DF000599762817381F60140E050E021E030E0C4
:101E00002C0F3D1F620F731F481759079CF4DA010E
:101E1000AA0FBB1FA60FB71F12962C91129730E086
:101E2000322F22271396AC912A2B219331934F5FA7
:101E30005F4FEACFC05FDE4F0FB6F894DEBF0FBE34
:101E4000CDBFDF91CF911F910F91FF90EF90DF9069
:101E5000CF900895CF93DF938EDECCE5D6E06991E5
:101E600079918EAD9FAD0E94BF2286E0C436D8071F
:101E7000B1F7DF91CF910895EF92FF920F931F93E7
:101E8000CF93DF93EC017B018C01000F111F0658EB
:101E9000194FEC16FD0654F063E070E0F8018191F3
:101EA00091918F010E94BF222196F3CFDF91CF91B4
:101EB0001F910F91FF90EF90089580917A08909173
:101EC0007B08009731F00E947D2A10927B081092C7
:101ED0007A0880916D0890916E08009761F00E94D9
:101EE0007F1A80916D0890916E080E94731A10926B
:101EF0006E0810926D0808950F931F93CF93DF9390
:101F000000D000D0CDB7DEB7AB0123E433E03A8395
:101F10002983FC0182819381A481B5818B839C8379
:101F2000AD83BE83BE016F5F7F4F80918408909127
:101F30008508BADE8C01892B39F486E190E0909314
:101F4000200980931F090DC08EE190E0A0E0B0E071
:101F5000F80180879187A287B38714861586168635
:101F60001786ABDF10936E0800936D088FEF90E03B
:101F70009093700880936F080115110599F1C801BD
:101F80000E948B1AE0916D08F0916E08892B41F048
:101F9000CF010E94731A10926E0810926D0822C031
:101FA0001092710810927D0810927C0810927F08A0
:101FB00010927E0810928108109280081092830877
:101FC00010928208309739F486E190E090932009CE
:101FD00080931F0904C084E090E09783868381E0AA
:101FE00090E002C080E090E026960FB6F894DEBF45
:101FF0000FBECDBFDF91CF911F910F9108958091BA
:10200000840890918508DC01ED91FC910688F789A0
:10201000E02D199590E00895CF92DF92EF92FF9214
:102020000F931F93CF93DF93CDB7DEB7E0970FB633
:10203000F894DEBF0FBECDBFFC0182819381A481E5
:10204000B5818DA79EA7AFA7B8AB51E058AB0DA542
:102050001EA52FA538A90B8F1C8F2D8F3E8FFB013E
:10206000C280D380E480F580C9A2DAA2EBA2FCA2F0
:102070008FA398A7A9A7BAA723E433E03C8B2B8BA7
:102080004FEF4D8B4E8B4F8B188E3E872D875E8F7B
:102090004B8D5C8D6D8D7E8D4F87588B698B7A8BC8
:1020A000C986DA86EB86FC863A8329838B839C83F8
:1020B000AD83BE8310915E081093380668EE73E01E
:1020C00080E090E0DDD561E0812F9ED51FB7F894C8
:1020D0008091BC06811123C0EDE9F2E08491E7E52F
:1020E000F2E09491E82FF0E0EE0FFF1FE85FFD4F64
:1020F000A591B491EC91E92319F461E085E356D5FB
:1021000061E085E381D58CB580618CBD8CB5806440
:102110008CBD61E084E378D561E083E375D580917F
:10212000BC068F5F8093BC061FBF60E080E090E03C
:102130000E94F720482F406864E080E090E00E9411
:102140003D2110E0012F0295000F007E045F42E068
:10215000602F8EE190E00E943D2142E0602F8FE1F0
:1021600090E00E943D211F5F183061F726E030E0CB
:1021700040E052E064E089E090E00E94122124E017
:1021800030E0AE014D5F5F4F64E08FE090E00E9471
:10219000122124E030E0AE01415F5F4F64E081E056
:1021A00090E00E94122124E030E0AE014B5E5F4FD0
:1021B00064E085E090E00E94122189859A85AB85D4
:1021C000BC858093540890935508A0935608B0930B
:1021D0005708E0960FB6F894DEBF0FBECDBFDF9173
:1021E000CF911F910F91FF90EF90DF90CF900895C6
:1021F0000F931F93CF93DF931F921F92CDB7DEB73C
:102200008C0160916F087091700880916D089091B9
:102210006E080E949F1A80916D0890916E08009739
:1022200039F486E190E09093200980931F090CC057
:10223000AE014F5F5F4FB8018DDD97FD05C069812D
:102240007A8180E090E003C06FEF7FEFCB010F90C9
:102250000F90DF91CF911F910F910895FC01118292
:102260001082138212821582148240E050E060EBEB
:1022700073E094C5EF92FF920F931F93CF93DF9378
:102280001F921F92CDB7DEB78C0169831A82FC01C1
:10229000E480F580FFEFEF1AFF0AB7010E94901E5D
:1022A000882381F0F8012081318184819581BE01EC
:1022B0006F5F7F4F820F931F0E94FC2BF801F58206
:1022C000E48281E00F900F90DF91CF911F910F91E9
:1022D000FF90EF900895CF92DF92EF92FF92CF930D
:1022E000DF936C01990FEE08FF08F7FE1BC06DE24B
:1022F00083EB97E00E94E31CEC0144275527BA01C9
:102300004C195D096E097F092AE083EB97E00E9472
:10231000CC1E8C0F9D1FDF91CF91FF90EF90DF902F
:10232000CF9008952AE0B701A60183EB97E0DF91F3
:10233000CF91FF90EF90DF90CF900C94CC1EAF9296
:10234000BF92CF92DF92FF920F931F93CF93DF93B1
:10235000F82E8B015A01690164E270E03DD7C82F65
:1023600065E270E08F2D38D7D0E0DC2FCC27080F46
:10237000111DC00FD11F6F2D6295660F607E6C5EC0
:102380009601A501CE010E941221CC0DDD1D4D2F1D
:1023900064E270E08F2D0E942D224C2F65E270E0E8
:1023A0008F2DDF91CF911F910F91FF90DF90CF90F4
:1023B000BF90AF900C942D22FF920F931F93CF9359
:1023C000DF93F82E00E010E08F2D0E94D520EC0165
:1023D000892B21F08F2D0E94D5208C01C017D107A9
:1023E00099F7CE01DF91CF911F910F91FF90089542
:1023F000CF93C82F462F61E070E00E942D2261E04C
:1024000070E08C2FE9D68111FACFCF910895AF9269
:10241000BF92CF92DF92EF92FF920F931F93CF93D1
:10242000DF93F82E5B016A01E22E68E270E0D4D6F9
:10243000C82F69E270E08F2DCFD62C2F30E0322FDD
:102440002227E901C80FD11D8091500890915108B1
:102450000E94F4200E94B9208D2F0E94ED208C2F25
:102460000E94ED208F2D8295880F807E885E0E94CD
:10247000ED208501AC0CBD1C0A151B0539F080E070
:102480000E94ED20F80181938F01F6CF0E94B420C5
:102490000E94EC20E1100EC0CC0DDD1D4D2F68E236
:1024A00070E08F2D0E942D224C2F69E270E08F2D5D
:1024B0000E942D22DF91CF911F910F91FF90EF90FD
:1024C000DF90CF90BF90AF900895FF920F931F932E
:1024D000CF93DF93F82E00E010E08F2D0E94BE20F6
:1024E000EC01892B21F08F2D0E94BE208C01C0179A
:1024F000D10799F7CE01DF91CF911F910F91FF90F6
:1025000008950F931F93CF93DF93C82FD62F8A017F
:102510000E9435224D2F60E070E08C2F0E942D220A
:102520000115110551F40091BA061091BB060F5F19
:102530001F4F1093BB060093BA06412F64E070E072
:102540008C2F0E942D22402F65E070E08C2F0E947E
:102550002D2261E070E08C2F4BDF81E0DF91CF9185
:102560001F910F9108954F925F926F927F928F9279
:102570009F92AF92BF92CF92DF92EF92FF920F9312
:102580001F93CF93DF93CDB7DEB763970FB6F89461
:10259000DEBF0FBECDBF7C015B013A01FB01DB0159
:1025A0008D918111FDCF20E030E080E090E05AE095
:1025B00041914423F9F0843091054CF54E3269F491
:1025C0002F3F310509F01CF5D301A80FB91F129652
:1025D0002C93019620E030E0EBCF529FB001539F47
:1025E000700D1124242F440F330B20533109260F73
:1025F000371FDECF2F3F310509F04CF484309105B1
:1026000034F4F301E80FF91F228381E01FC0F701C2
:102610004281538164817581809161089091620843
:10262000A0916308B0916408481759076A077B07AF
:1026300009F41FC15DD38701085F1F4F6F707727B3
:102640007C5FC801D2D5813019F080E090E0F2C102
:1026500083E493E09A838983F70182819381A48143
:10266000B5818B839C83AD83BE8345E350E0BE017F
:102670006F5F7F4FC80134D4892B19F4C12CD12C42
:10268000F4C036D3F7017783668342E050E0B701A8
:102690006A5F7F4FC8010E945E1E81E090E09A83CE
:1026A000898342E050E0BE016F5F7F4FC8010E9406
:1026B0005E1E80E091E09A83898342E050E0BE0193
:1026C0006F5F7F4FC8010E945E1E1A82198242E02E
:1026D00050E0BE016F5F7F4FC8010E945E1E42E066
:1026E00050E0BE016F5F7F4FC8010E945E1E42E056
:1026F00050E0BE016F5F7F4FC8010E945E1E450122
:10270000F5018081882301F164015601F601819170
:102710002F01882321F08E3211F06201F6CFC81804
:10272000D9081C141D0474F4CD8641E050E0BE01AC
:10273000635F7F4FC8010E945E1EA601B401C801FD
:102740000E945E1E4201DCCF1D8641E050E0BE01CA
:10275000635F7F4FC8010E945E1EC12CDD24D394AD
:10276000DA82C98242E050E0BE016F5F7F4FC8014C
:102770000E945E1EDA82C98242E050E0BE016F5FB5
:102780007F4FC8010E945E1EC8010E944122892B12
:1027900009F474CFE3E0AE2EB12C230122E0420E07
:1027A000511CA6D23B014C01C8010E94DD21181624
:1027B000190694F09DD2DC01CB0186199709A8096E
:1027C000B90989389341A105B105C8F462E370E005
:1027D00080E090E055D2E8CFF701428153816481D7
:1027E0007581818D928DA38DB48D481759076A0725
:1027F0007B0749F4858D968DC59729F409C0CC24B3
:10280000CA94DC2C29C09EEFC92EDD24DA9424C0A2
:10281000F70181A192A10C970CF407C14CE050E0A4
:10282000BE016F5F7F4FC8010E9497218B819C8101
:102830009827892798279A8B898BF701468157819A
:1028400029813A8142175307B9F0C8010E94D21D6D
:102850007CEFC72EDD24DA9481E0A81AB10829F0B4
:10286000FFEFCF16DF0609F49CCFC8015CD4C60188
:10287000E1C08EEF9FEFDEC097FFE7CF8F709270C1
:10288000892B41F0C8010E94D21D6BEFC62EDD24BA
:10289000DA94E2CF6F8078847624672476246114FA
:1028A000710419F0C12CD12C25C0C8010E94D21D81
:1028B0005AEFC52EDD24DA94CFCF41E050E0BE01BF
:1028C000635F7F4FC8010E9497218D8581111BC0D6
:1028D0008D858111F2CFC8010E94B521C8010E94E7
:1028E000B521C8010E94B521C8010E94B521FFEFA2
:1028F000CF1ADF0A8D819E81982789279827C816CD
:10290000D906D8F20AC08D859FEF980F9D8788233E
:10291000F9F2C8010E94B521F6CF812C912C41E03B
:1029200050E0BE016D5E7F4FC8010E9497218B89E8
:10293000982F907C61F4882389F08B899FEF980F02
:102940009B8B882341F0C8010E94B521F6CFC801B6
:102950000E94B5211B8A8B898111E1CF42E050E0B2
:10296000BE01615F7F4FC8010E94972142E050E0A5
:10297000BE01635F7F4FC8010E949721C8010E947A
:10298000B521C8010E94B521C8010E94B521C80126
:102990000E94B52142E050E0BE016F5E7F4FC8014A
:1029A0000E9497218F8598898115914049F4CD84A3
:1029B000DE84DC24CD24DC2481E0C816D10419F0A7
:1029C000C12CD12C14C089899A898115944041F079
:1029D000C8010E94D21D47EFC42EDD24DA943CCFFB
:1029E00044E050E0B201C8010E94972135CF8989A7
:1029F0009A89982789279827C816D90638F4C801D4
:102A00000E94B521FFEFCF1ADF0AF1CF2FEF821A14
:102A1000920A6814790409F082CFC8010E94D21D7D
:102A200036EFC32EDD24DA9417CF8DEFC82EDD24C8
:102A3000DA9412CF63960FB6F894DEBF0FBECDBF07
:102A4000DF91CF911F910F91FF90EF90DF90CF908A
:102A5000BF90AF909F908F907F906F905F904F90BE
:102A60000895CF93DF93282F30E0F901EE53FE4F06
:102A70008491F901EE5DFD4FD491F901E859FD4FC4
:102A8000C491CC2389F081113BD0EC2FF0E0EE0F04
:102A9000FF1FE855FE4FA591B491EC91ED2381E025
:102AA00090E021F480E002C080E090E0DF91CF91DF
:102AB00008953FB7F8948091120790911307A09161
:102AC0001407B091150726B5A89B05C02F3F19F034
:102AD0000196A11DB11D3FBFBA2FA92F982F88279E
:102AE000820F911DA11DB11DBC01CD0142E0660FF9
:102AF000771F881F991F4A95D1F708950E94E62BEA
:102B000090E0FC013197E231F10508F04EC08827D2
:102B1000E757FF4F8F4F0C94DD29809180008F770E
:102B200003C0809180008F7D809380000895809104
:102B30008000877FF9CF84B58F7702C084B58F7D01
:102B400084BD08958091B0008F7703C08091B0005C
:102B50008F7D8093B0000895809190008F7707C09B
:102B6000809190008F7D03C080919000877F80933B
:102B7000900008958091A0008F7707C08091A000F9
:102B80008F7D03C08091A000877F8093A00008956F
:102B9000809120018F7707C0809120018F7D03C035
:102BA00080912001877F8093200108951F93CF9308
:102BB000DF93282F30E0F901EE53FE4F8491F901A5
:102BC000EE5DFD4FD491F901E859FD4FC491CC233E
:102BD000B9F0162F811194DFEC2FF0E0EE0FFF1FFC
:102BE000E255FD4FA591B4919FB7F894111104C01F
:102BF0008C91D095D82302C0EC91DE2BDC939FBF43
:102C0000DF91CF911F910895CF93DF9390E0FC0166
:102C1000EE5DFD4F2491FC01E859FD4F849188231E
:102C200061F190E0880F991FFC01E85FFD4FC591AD
:102C3000D491FC01E255FD4FA591B491611109C0F9
:102C40009FB7F8948881209582238883EC912E2366
:102C50000BC0623061F49FB7F8948881322F3095B1
:102C600083238883EC912E2B2C939FBF06C08FB7B4
:102C7000F894E8812E2B28838FBFDF91CF910895A0
:102C80008F929F92AF92BF92CF92DF92EF92FF927C
:102C90006B017C010EDF4B015C01C114D104E10426
:102CA000F104E9F006DFDC01CB0188199909AA09D2
:102CB000BB09883E9340A105B10578F321E0C21A13
:102CC000D108E108F10888EE880E83E0981EA11C67
:102CD000B11CC114D104E104F10421F7DECFFF904F
:102CE000EF90DF90CF90BF90AF909F908F9008951E
:102CF0002FB7F89460910E0770910F07809110071D
:102D0000909111072FBF08951F920F920FB60F9247
:102D100011242F933F938F939F93AF93BF938091F1
:102D20000E0790910F07A0911007B09111073091F5
:102D30000D0723E0230F2D3720F40196A11DB11DAF
:102D400005C026E8230F0296A11DB11D20930D0793
:102D500080930E0790930F07A0931007B09311076D
:102D60008091120790911307A0911407B091150755
:102D70000196A11DB11D8093120790931307A09394
:102D80001407B0931507BF91AF919F918F913F9119
:102D90002F910F900FBE0F901F901895EF92FF92FA
:102DA0000F931F93CF93DF93EC017B018A01BA014C
:102DB000B7D72881398181110DC02115310519F04E
:102DC000C9010E947D2A198218821D821C821B82E1
:102DD0001A8206C01D830C83B701C9010E94FC2B17
:102DE000CE01DF91CF911F910F91FF90EF90089549
:102DF000CF93DF93EC016115710551F0FB01019058
:102E00000020E9F73197AF01461B570BC7DF0CC015
:102E100088819981009711F00E947D2A1982188279
:102E20001D821C821B821A82CE01DF91CF910895F0
:102E3000FC01818D928D0895FC0185899689089504
:102E400023E433E0FC0131832083FB014189528973
:102E500063897489FC014283538364837583089575
:102E600080E00895FC019485FB018485981303C0DC
:102E700081E0983009F480E0089521E0FC01848528
:102E8000883009F420E0822F08950895CF93DF93CE
:102E90001F92CDB7DEB76983DC01ED91FC91028012
:102EA000F381E02D41E050E0BE016F5F7F4F199547
:102EB0000F90DF91CF910895DC01ED91FC91028C90
:102EC000F38DE02D199591E08927089580E090E039
:102ED0000895DC01ED91FC91048CF58DE02D1994A1
:102EE0001F93CF93DF93FB01DC0158961C921E9237
:102EF00057972281211109C02381211106C0248105
:102F0000211103C02581222321F14115510509F129
:102F1000EA01DC011C961C91AF014E5F5F4F612FEF
:102F20006295660F607E645F24E030E08CE090E0A4
:102F30000E9412214D2F60E170E0812F0E942D220E
:102F40004C2F61E170E0812F0E942D2281E090E002
:102F500002C080E090E0DF91CF911F910895CF9261
:102F6000DF92EF92FF920F931F93CF93DF93CDB732
:102F7000DEB7AF970FB6F894DEBF0FBECDBF7C01B2
:102F80006A0103E413E01A8309831C861B8688EE1A
:102F900093E0A0E0B0E08D879E87AF87B88B83E891
:102FA00092E09A87898788E08D8B198F088F1A8E17
:102FB0001B8E1C8E1D8E1BA70AA71CA61DA61EA657
:102FC0001FA68091540890915508A0915608B09181
:102FD00057088EA39FA3A8A7B9A78B839C83AD8313
:102FE000BE8318861F82AE01465D5F4FCE010196FB
:102FF000BADA81309105B1F4D701ED91FC910488E2
:10300000F589E02D1DA30CA38CA59DA5AEA5BFA59C
:103010008EA39FA3A8A7B9A7A601BE016C5D7F4F91
:10302000C7011995AF960FB6F894DEBF0FBECDBF9E
:10303000DF91CF911F910F91FF90EF90DF90CF9094
:103040000895CF92DF92EF92FF920F931F93CF9349
:10305000DF93CDB7DEB7AF970FB6F894DEBF0FBEE4
:10306000CDBF7C016A0103E413E01A8309831C8647
:103070001B8688EE93E0A0E0B0E08D879E87AF8747
:10308000B88B83E892E09A87898788E08D8B198FC7
:10309000088F1A8E1B8E1C8E1D8E1BA70AA71CA6BE
:1030A0001DA61EA61FA68091540890915508A091B8
:1030B0005608B09157088EA39FA3A8A7B9A78B83E2
:1030C0009C83AD83BE8318861F82AE01465D5F4F31
:1030D000CE01019648DA81309105B1F4D701ED9126
:1030E000FC910684F785E02D1DA30CA38CA59DA55E
:1030F000AEA5BFA58EA39FA3A8A7B9A7A601BE0191
:103100006C5D7F4FC7011995AF960FB6F894DEBF7F
:103110000FBECDBFDF91CF911F910F91FF90EF9028
:10312000DF90CF900895CF93DF93FC0184858830A2
:1031300029F0EF010E94352288E08C87DF91CF9142
:1031400008950F931F93CF93DF931F92CDB7DEB7F0
:103150008C01DC01ED91FC910084F185E02D199545
:10316000892B61F021E041E050E0BE016F5F7F4FAD
:10317000F80184854CD9898190E002C08FEF9FEFE0
:103180000F90DF91CF911F910F910895FC018485DD
:103190000C945A21CF93DF931F92CDB7DEB741E055
:1031A00050E0BE016F5F7F4FFC0184850E945A2171
:1031B000181619061CF4898190E002C08FEF9FEF6A
:1031C0000F90DF91CF910895FC018485883009F03C
:1031D0007CC980E090E008959B018295880F807EF5
:1031E00068E0680FC9010C94F720EF92FF921F93DB
:1031F000CF93DF93FC012485283011F080E01BC0C1
:103200007B01EC0110E063E070E0812FE5DF8111CC
:1032100002C01C8705C08831E1F31F5F183099F7A1
:103220008C85883059F3FE86ED861A8E198EA7019B
:1032300062E067D981E0DF91CF911F91FF90EF901D
:103240000895FC018485883019F063E070E0C4CFF4
:1032500080E00895CF93DF93FC0124852830C9F0E6
:10326000EC01EFDF843181F0882371F0883161F067
:103270008C3161F4E881F9810084F185E02DCE0183
:10328000199521E0892B19F420E001C021E0822F5B
:1032900001C080E0DF91CF910895CF92DF92EF924D
:1032A000FF92CF93DF93EC018C85883029F168E0A1
:1032B00070E09ED81DDD6B017C01CE01C2DF88234A
:1032C00091F016DDDC01CB018C199D09AE09BF0917
:1032D000883E9340A105B10530F461E070E080E0E4
:1032E00090E0CEDCEACFCE01ACDF882319F08C85EC
:1032F0000E94352288E08C87DF91CF91FF90EF907C
:10330000DF90CF9008958F929F92AF92BF92CF920D
:10331000DF92EF92FF920F931F93CF936C015B01AB
:103320007A01FC01C485C83041F481E090E0F601E7
:103330009383828380E090E03CC08A014130584012
:1033400010F000E018E08C2F37D84C0163E070E0FB
:103350008C2F42DF873111F08C3121F480169106D9
:1033600090F302C000E010E09801A50160E070E079
:103370008C2F0E949F1160E270E08C2F39D862E0A0
:1033800070E08C2F29DF84FD0AC063E070E08C2F91
:1033900023DF8111F4CF8C2F0E943522C6CF40E16C
:1033A00062E070E08C2F0E942D22012B09F4BDCF2A
:1033B000C701CF911F910F91FF90EF90DF90CF90B9
:1033C000BF90AF909F908F900895DF92EF92FF9201
:1033D0000F931F93CF93DF93FC012485283009F0CE
:1033E00075C07A01EB018C01D12C63E070E08D2D6A
:1033F000F3DE811103C0F801D48607C08B7F8831CA
:10340000D1F3D394F8E0DF12F0CFF801848588304F
:1034100009F45CC020911202309113022F5F3F4FDC
:1034200011F420E034E03093130220931202409113
:1034300012025091130261E064D88A818F3F51F4E7
:103440008B818F3F91F48C818F3F79F48D818F3FF9
:1034500061F439C0811109C08B81811106C08C8152
:10346000811103C08D81882371F1E114F10459F1B8
:10347000F801D484AE014E5F5F4F6D2D6295660FEB
:10348000607E645F24E030E08CE090E0CBD64F2D8E
:1034900060E170E08D2DE1D74E2D61E170E08D2D62
:1034A000DCD764E070E08D2D0E94F811C801C9DE00
:1034B000873179F061E070E080E090E0E1DBC80105
:1034C000C0DE8111F3CF88E0F801848780E090E0CE
:1034D00002C081E090E0DF91CF911F910F91FF90AA
:1034E000EF90DF900895009749F0DC015896ED9138
:1034F000FC91599704A0F5A1E02D19940895009727
:1035000049F0DC015896ED91FC915997068CF78DA6
:10351000E02D19940895009749F0DC015896ED913B
:10352000FC915997048CF58DE02D199486E190E07B
:103530009093200980931F098FEF9FEF08950097C4
:1035400049F0DC015896ED91FC9159970084F18582
:10355000E02D199486E190E09093200980931F0953
:103560008FEF9FEF0895BF92CF92DF92EF92FF927D
:103570000F931F93CF93DF93CDB7DEB7ED84FE8417
:10358000CF84D888B9880B891C89D70114968D916E
:103590009C911597892B59F0AE01475E5F4F6F895B
:1035A000788D80912509909126090E94032C8D89A0
:1035B0009E89892B31F0C7010E945303C7010E94E5
:1035C0003F03F6018281938180589F4F93838283CA
:1035D000D7015896ED91FC9159970484F585E02D1B
:1035E000B801C6011995F801E80FF91FB0820196DC
:1035F000DF91CF911F910F91FF90EF90DF90CF90CF
:10360000BF9008952F923F925F926F927F928F9218
:103610009F92AF92BF92CF92DF92EF92FF920F9361
:103620001F93CF93DF93EC017B015A014901E88D91
:10363000F98D028113816A01C00ED11ED6015C9002
:10364000652C712C028CF38DE02D309769F0199563
:10365000019651F48E8182FF03C1CE010E94530373
:10366000CE010E943F03FCC0A88DB98D12962D910A
:103670003C9113971701220E331EF101408150E057
:10368000FA013197E731F10590F58827EA55FF4FA8
:103690008F4F0C94DD2987E090E02EC0F10143812B
:1036A00050E0542F44278481482BBA0157FF02C0B1
:1036B000695F7F4FE3E075956795EA95E1F76E5F87
:1036C0007F4F4770552781E090E0452B11F480E053
:1036D00090E0860F971F10C0F101838190E0982F32
:1036E00088274481842B0196880F991F05C085E0A7
:1036F00090E002C083E090E0820F931F14962D911A
:103700003C911597820F931F02C08FEF9FEFF0E857
:103710006F1671043CF114968D919C911597800F52
:10372000911F029688169906B1F4F701E00FF11F78
:10373000208130E0D6018C9190E0805891092817C3
:10374000390749F411968C9190E08C3091051CF466
:103750008E51944D02C080EF9BE29093200980939C
:103760001F097EC08816990611F0019641F4D70111
:10377000A00FB11F8C9190E06816790661F08E81E0
:1037800082FF06C0CE010E945303CE010E943F0378
:103790008FEE9BE2E2CF452D50E0FA013197E73101
:1037A000F10508F060C08827E354FF4F8F4F0C9459
:1037B000DD2913968C91139790E0982F8827149603
:1037C0002C91820F911DAC014770552721E030E00C
:1037D000452B11F420E030E097FD079673E09595B6
:1037E00087957A95E1F7280F391FF60181810EC080
:1037F00013962C91139730E0322F222714968C9138
:10380000280F311DD60111968C91869590E022C02B
:10381000C80103960C5F1F4FF701E80FF91F2081C5
:1038200030E0322F2227F701E00FF11F4081240FF3
:10383000311DF501E80FF91F808190E0982F88274E
:10384000F501E00FF11F4081842B04C0F601818156
:1038500090E00BC02817390709F091CFC90105C0C6
:103860008FEF9FEF02C081E090E0DF91CF911F9139
:103870000F91FF90EF90DF90CF90BF90AF909F900F
:103880008F907F906F905F903F902F900895089554
:10389000CF92DF92EF92FF920F931F93CF93DF931C
:1038A0006C017A018B01C0E0D0E0CE15DF0581F01C
:1038B000D8016D918D01D601ED91FC910190F081BF
:1038C000E02DC6011995892B11F02196EECF7E01CE
:1038D000C701DF91CF911F910F91FF90EF90DF9083
:1038E000CF900895FC01538D448D252F30E0842F17
:1038F00090E0821B930B541710F0CF960895019718
:103900000895FC01918D828D981761F0828DDF0101
:10391000A80FB11D5D968C91928D9F5F9F73928FC2
:1039200090E008958FEF9FEF0895FC01918D828DB7
:10393000981731F0828DE80FF11D858D90E0089584
:103940008FEF9FEF0895FC01918D228D892F90E0DC
:10395000805C9F4F821B91098F739927089586E1A0
:1039600097E0F1DF21E0892B09F420E0822F089510
:1039700083EB97E0E8DF21E0892B09F420E0822F38
:103980000895FC01848DDF01A80FB11DA35ABF4F1C
:103990002C91848D90E001968F739927848FA6894E
:1039A000B7892C93A089B1898C91837080648C93A2
:1039B000938D848D981306C00288F389E02D808151
:1039C0008F7D80830895EF92FF920F931F93CF9383
:1039D000DF93EC0181E0888F9B8D8C8D981305C05F
:1039E000E889F989808185FD25C0F62E0B8D10E0D0
:1039F0000F5F1F4F0F731127E02E8C8DE8120BC045
:103A00000FB607FCFACFE889F989808185FFF5CFE9
:103A1000CE01B7DFF2CF8B8DFE01E80FF11DE35A27
:103A2000FF4FF0829FB7F8940B8FEA89FB89808162
:103A300080620AC09FB7F894EE89FF896083E889A5
:103A4000F98980818370806480839FBF81E090E0EA
:103A5000DF91CF911F910F91FF90EF900895CF9339
:103A6000DF93EC01888D8823C1F0EA89FB8980818E
:103A700085FD05C0A889B9898C9186FD0EC00FB659
:103A800007FCF5CF808185FFF2CFA889B9898C9199
:103A900085FFEDCFCE0175DFE8CFDF91CF9108959F
:103AA00080E090E0892B19F063DF811120C080E075
:103AB00090E0892B41F080E090E0892B21F00E947A
:103AC0000000811117C080E090E0892B19F047DFDA
:103AD000811113C080E090E0892BA1F080E090E09C
:103AE000892B81F00E94000081110AC008950E9474
:103AF0000000DDCF0E940000E6CF0E940000EACF68
:103B00000C940000089581E00895FC0184898823C5
:103B100049F084859585DC01ED91FC910190F0815F
:103B2000E02D199481E090E09383828380E090E01F
:103B30000895DC011C968D919C911D97DC01ED91FF
:103B4000FC910680F781E02D1994DC011C968D9183
:103B50009C911D97DC01ED91FC910284F385E02D91
:103B60001994DC011C968D919C911D97DC01ED91BF
:103B7000FC910484F585E02D1994DC011C968D914F
:103B80009C911D97DC01ED91FC910084F185E02D65
:103B90001994DC01ED91FC910088F189E02D26E07B
:103BA00030E01994CF93DF93EC01898D9A8D892BA6
:103BB00041F0E881F9810284F385E02DCE01199569
:103BC000F4CFDF91CF910895CF93DF931F92CDB7BC
:103BD000DEB76983DC01ED91FC910280F381E02D79
:103BE00041E050E0BE016F5F7F4F19950F90DF916C
:103BF000CF9108950F931F93CF93DF938C01FC0116
:103C0000C485D585E881F9810680F781E02DCE0154
:103C10001995EA89FB8980818F7E8083EA89FB89F7
:103C20008081877F8083EA89FB8980818F77808389
:103C3000EA89FB8980818F7D80838A8D898FF80155
:103C40008289938997FD08C060E00E94D61560E0E4
:103C5000F80180890E940416F8018089918997FDF6
:103C60000CC060E00E94D61560E0F8018289DF9107
:103C7000CF911F910F910C940416DF91CF911F915A
:103C80000F910895CF93DF931F92CDB7DEB7FC015C
:103C9000218D328D232B61F021E041E050E0BE0107
:103CA0006F5F7F4F84850E940712898190E002C078
:103CB0008FEF9FEF0F90DF91CF910895AF92BF925A
:103CC000CF92DF92FF920F931F93CF93DF938C01DC
:103CD0005B01EA01FC01C788D08CF4848F2D0E941F
:103CE000DC118C179D0720F48F2D0E94DC11EC0154
:103CF0009E01A501B6018F2D0E949F11F8018789B1
:103D0000908D8C0F9D1F908F878BCE01DF91CF916F
:103D10001F910F91FF90DF90CF90BF90AF900895CB
:103D20000F931F93CF93DF93EC01888199810097C4
:103D300029F02A813B812617370788F48B016F5FB2
:103D40007F4F0E94062B009761F0998388831B8325
:103D50000A832C813D81232B11F4FC01108281E028
:103D600001C080E0DF91CF911F910F9108956115FF
:103D7000710579F0FB0101900020E9F73197AF015F
:103D8000461B570BDC01ED91FC910280F381E02D85
:103D9000199480E090E008958F929F92AF92BF9225
:103DA000EF92FF920F931F93CF93DF93CDB7DEB7C0
:103DB000A1970FB6F894DEBF0FBECDBF7C01FA010C
:103DC000CB0119A2223008F42AE08E010F5D1F4FAB
:103DD000822E912CA12CB12CBF01A50194010E942F
:103DE000AC29F901CA01015011096A3014F4605D6F
:103DF00001C0695CD8016C93232B242B252B61F720
:103E0000B801C701B4DFA1960FB6F894DEBF0FBEAC
:103E1000CDBFDF91CF911F910F91FF90EF90BF9099
:103E2000AF909F908F9008958F929F92AF92BF9284
:103E3000CF92DF92EF92FF920F931F93CF93DF9376
:103E40007C01EB016C0182E0C80ED11C4701E5E06A
:103E50008E0E911C00E010E0F60141916F0150E0E0
:103E600060E070E02AE0CE0197DF5C01E881F98133
:103E70000190F081E02D6EE2CE0119958A0D9B1D17
:103E8000080F191F8C149D0439F7F701458150E084
:103E900060E070E02AE0CE017FDF800F911FDF91AC
:103EA000CF911F910F91FF90EF90DF90CF90BF9037
:103EB000AF909F908F9008951F920F920FB60F9220
:103EC00011240BB60F922F933F934F935F936F93F1
:103ED0007F938F939F93AF93BF93EF93FF9386E16D
:103EE00097E04FDDFF91EF91BF91AF919F918F913F
:103EF0007F916F915F914F913F912F910F900BBEEA
:103F00000F900FBE0F901F9018951F920F920FB633
:103F10000F9211240BB60F922F938F939F93EF93D1
:103F2000FF93E0912607F09127078081E0912C070D
:103F3000F0912D0782FD12C0908180912F078F5F35
:103F40008F7320913007821751F0E0912F07F0E036
:103F5000EA5EF84F958F80932F0701C08081FF9113
:103F6000EF919F918F912F910F900BBE0F900FBEED
:103F70000F901F9018951F920F920FB60F92112459
:103F80000BB60F922F933F934F935F936F937F9353
:103F90008F939F93AF93BF93EF93FF9383EB97E040
:103FA000F0DCFF91EF91BF91AF919F918F917F9145
:103FB0006F915F914F913F912F910F900BBE0F909A
:103FC0000FBE0F901F9018951F920F920FB60F9271
:103FD00011240BB60F922F938F939F93EF93FF9320
:103FE000E091C307F091C4078081E091C907F09187
:103FF000CA0782FD12C090818091CC078F5F8F73BA
:104000002091CD07821751F0E091CC07F0E0ED54FC
:10401000F84F958F8093CC0701C08081FF91EF917D
:104020009F918F912F910F900BBE0F900FBE0F900D
:104030001F901895CF92DF92EF92FF921F93CF932C
:10404000DF93EC016A017B01122FE889F98982E094
:1040500080834115514E61057105B1F060E079E052
:104060008DE390E0A70196010E94AC29DA01C90115
:104070000197A109B109B695A795979587959C01D8
:10408000211580E13807A8F0E889F989108260E8F5
:1040900074E88EE190E0A70196010E94AC29DA0154
:1040A000C9010197A109B109B695A795979587957B
:1040B0009C01EC85FD853083EE85FF852083188E7D
:1040C000EC89FD891083EA89FB8980818061808386
:1040D000EA89FB89808188608083EA89FB89808105
:1040E00080688083EA89FB8980818F7D8083DF916E
:1040F000CF911F91FF90EF90DF90CF900895CF92D6
:10410000DF92EF92FF921F93CF93DF93EC016A014E
:104110007B01122F4D8B5E8B6F8B788F298F3A8F9F
:104120008889998997FD07C061E00E94041660E0C4
:1041300088890E94D6158A899B8997FD07C061E00E
:104140000E94041661E08A890E94D6151C8A212FDC
:10415000B701A6018C859D85DF91CF911F91FF90BE
:10416000EF90DF90CF9066CF61E0809138060C949D
:10417000D61560E0809138060C94D6151F93CF9326
:10418000DF93182F66E270E027D8C82FD0E0DC2F2D
:10419000CC2767E270E0812F1FD89E01280F311DC8
:1041A000C901DF91CF911F9108951F93CF93DF93A2
:1041B000182F60E270E010D8C82FD0E0DC2FCC2799
:1041C00061E270E0812F08D89E01280F311DC901DE
:1041D000DF91CF911F91089508958EBD00000DB419
:1041E00007FEFDCF8EB508958CBD9DBD08951F932C
:1041F000CF93DF93D82F192FC62F8091500890911D
:104200005108F2DFB6DF812FE8DF8D2FE6DF8C2F3C
:10421000E4DF80E0E2DFC82FA7DF8C2FDF91CF91B2
:104220001F910895DF92EF92FF920F931F93CF9308
:10423000DF93D82FD92EC62F7A018901809150089B
:1042400090915108D1DF95DF8D2DC7DF8D2FC5DF10
:104250008C2FC3DFE701E00EF11ECE15DF0519F04C
:104260008991BBDFFACF80DFC801DF91CF911F9129
:104270000F91FF90EF90DF9008950F931F93CF93CE
:10428000DF93182F092FD62FC42F809150089091BB
:104290005108AADF6EDF802FA0DF812F9EDF8D2FD8
:1042A0009CDF8C2F9ADF60DF81E0DF91CF911F913F
:1042B0000F910895CF92DF92EF92FF921F93CF93C9
:1042C000DF93182F6B017A010E946512EC010097B1
:1042D00099F463E070E0812F0E94EC188431F1F0D2
:1042E0008823E1F0C1E0D0E08C3111F4C0E0D0E0EF
:1042F000D195C195D10912C0E816F9060CF4E70171
:104300001C161D065CF420E0AE01B601812F0E9450
:10431000071260E470E0812F0E94F811CE01DF9156
:10432000CF911F91FF90EF90DF90CF900895CF93A2
:10433000DF93FC01218D328D2115310519F48FEFAA
:104340009FEF10C0EC014217530708F0A9018C85BC
:10435000B1DF181619069CF7298D3A8D281B390BE9
:104360003A8F298FDF91CF9108950F931F93CF93A9
:10437000DF931F92CDB7DEB7FC01218D328D232B49
:1043800059F08C0141E050E0BE016F5F7F4F8485A2
:1043900091DF181619061CF08FEF9FEF08C0F80187
:1043A000818D928D0197928F818F898190E00F90FE
:1043B000DF91CF911F910F9108950F931F93CF938A
:1043C000DF93CDB7DEB728970FB6F894DEBF0FBEE8
:1043D000CDBF8C01DC01ED91FC910680F781E02DD1
:1043E0001995F80184850E946512892B49F148E0EE
:1043F00050E0BE016F5F7F4FD8011C968C915ADF51
:1044000018161906FCF4D801519684E0FE01319685
:1044100001900D928A95E1F78D8190E0982F882781
:104420002E81820F911DF801968B858B8F8190E0F4
:10443000982F88272885820F911D928F818F02C027
:1044400080E090E028960FB6F894DEBF0FBECDBF97
:10445000DF91CF911F910F9108959B018295880F55
:10446000807E6CE0680FC90108CFCF93C82F60E150
:1044700070E00E94F8114FEF62E070E08C2FCF9156
:10448000ECCFCF93FC01C48560E270E08C2F0E94DA
:10449000F81162E070E08C2F0E94EC1884FD0FC0D0
:1044A00062E070E08C2F0E94EC1883FFF2CF48E1AD
:1044B00062E070E08C2FD1DF80E090E007C040E147
:1044C00062E070E08C2FC9DF81E090E0CF91089529
:1044D000EF92FF920F931F93CF93DF93CDB7DEB789
:1044E000C051D1400FB6F894DEBF0FBECDBF0097CC
:1044F00039F486E190E09093200980931F0925C04C
:104500009A01AB017C01DC015896ED91FC91599721
:104510000284F385E02D8E010B5F1E4F66E070E094
:104520001995AC01B801C7010E94EB0418161906D1
:10453000C4F441E050E0BE016F5F7F4FC7010E94AD
:104540006F038F3FBFEF9B0719F48FEF9FEF09C0F9
:104550009C01AE014F5F5F4FBE016B5F7E4FC70195
:1045600051D8C05FDE4F0FB6F894DEBF0FBECDBF8F
:10457000DF91CF911F910F91FF90EF9008950F93CE
:104580001F93CF93DF93EC018B0160916F087091C3
:10459000700880916D0890916E080E949F1A80911A
:1045A0006D0890916E08009749F486E190E0909331
:1045B000200980931F0980E090E009C0A801BE0196
:1045C00087DF9095991F9927991F892F90E0DF9198
:1045D000CF911F910F910895CF93DF93CDB7DEB7A1
:1045E0002C970FB6F894DEBF0FBECDBF789484B57C
:1045F000826084BD84B5816084BD85B5826085BDDF
:1046000085B5816085BD80916E00816080936E006C
:10461000109281008091810082608093810080915E
:10462000810081608093810080918000816080930F
:1046300080008091B10084608093B1008091B000CF
:1046400081608093B000809191008260809391009E
:1046500080919100816080939100809190008160B1
:10466000809390008091A10082608093A10080914E
:10467000A10081608093A1008091A000816080935F
:10468000A00080912101826080932101809121010D
:1046900081608093210180912001816080932001BD
:1046A00080917A00846080937A0080917A008260A1
:1046B00080937A0080917A00816080937A00809163
:1046C0007A00806880937A001092C1008CE993E1AF
:1046D00090930C0780930B0726E040E051EE60E0DA
:1046E00070E086E197E0A6DC26E040E052EC61E075
:1046F00070E083EB97E09EDC83E493E09A83898308
:1047000040910A0250910B0260910C0270910D02CF
:104710004B835C836D837E8398878F8380910602B1
:1047200090910702A0910802B091090289879A87A7
:10473000AB87BC87BE016F5F7F4FCE0107960E949B
:104740000C101092E4061092E3068CE390E0909334
:10475000E6068093E50680EA90E09093E806809371
:10476000E70681EA90E09093EA068093E90682EA00
:1047700090E09093EC068093EB0683EA90E09093B0
:10478000EE068093ED068DE390E09093F006809323
:10479000EF068EE390E09093F2068093F10685E0B9
:1047A00090E090937B0680937A0686E090E0909369
:1047B0007D0680937C0687E090E090937F0680934F
:1047C0007E0688E090E0909381068093800689E0E1
:1047D00090E0909383068093820684E190E090932A
:1047E00085068093840685E190E090938706809308
:1047F000860686E190E0909389068093880687E19B
:1048000090E090938B0680938A0688E190E09093E5
:104810008D0680938C0689E190E090938F068093BB
:104820008E068AE190E090939106809390068BE14A
:1048300090E090939306809392068CE190E09093A1
:104840009506809394068DE190E09093970680936F
:1048500096068EE190E090939906809398068FE1FA
:1048600090E090939B0680939A0680E290E090936C
:104870009D0680939C0681E290E090939F06809332
:104880009E0682E290E09093A1068093A00683E2C8
:1048900090E09093A3068093A20684E290E0909328
:1048A000A5068093A40685E290E09093A7068093E6
:1048B000A60686E290E09093A9068093A80687E278
:1048C00090E09093AB068093AA0688E290E09093E4
:1048D000AD068093AC0689E290E09093AF0680939A
:1048E000AE068AE290E09093B1068093B0068BE228
:1048F00090E09093B3068093B2068CE290E09093A0
:10490000B5068093B4068CE291E09093B70680934D
:10491000B60660E086E10E94041660E089E30E942A
:10492000041660E087E10E94041660E088E10E94BE
:10493000041660E089E10E94041660E08AE10E94AA
:10494000041660E08BE30E94041660E08DE10E9493
:10495000041660E083E00E94041660E087E30E9492
:10496000041660E08EE10E94041661E084E20E9479
:10497000041661E085E20E94041661E087E20E946D
:10498000041661E086E20E94041603E610E073E478
:10499000E72E73E0F72E809103079091040783368A
:1049A0009105A1F498E0292E312C27E0422E512CBC
:1049B00034E0632E712C43E6C42ED12C52E0A52E98
:1049C000B12C6FEC862E66E0962E68C00E94FF0F19
:1049D000892B09F560910B0770910C07FA82E98227
:1049E0008091670890916808A0916908B0916A0861
:1049F0008B839C83AD83BE83CE0101960E947C0F86
:104A0000892B11F40E945D0F64E670E080E090E075
:104A10000E944016C0CF6EE170E080E090E00E94FE
:104A20003C0F60E070E08EE190E00E94CC0B0E94B1
:104A3000E60B1093040700930307ADCF8091760631
:104A400090917706009709F047C061E070E08EE131
:104A500090E00E94CC0B80E090E00E94AF0B81E0E0
:104A600090E00E94AF0B8091C3069091C406823003
:104A70009105C1F18530910509F4ADC060E0019761
:104A800009F037C187E20E94D615109208071092EC
:104A90000707109206071092050702D860910B07CE
:104AA00070910C0783E493E09A838983809167086F
:104AB00090916808A0916908B0916A088B839C83E3
:104AC000AD83BE83CE0101960E947C0F892B09F035
:104AD000B5CF0E945D0FB2CF019709F0BCCF60E067
:104AE00070E0B5CF8091070790910807892B09F0F6
:104AF00058C06CE170E085E090E00E943C0F80912E
:104B0000100290911102892B29F41092C206109282
:104B1000C10606C081E090E09093C2068093C10672
:104B20006BE176E083EB97E022D98091C10690910A
:104B3000C2060E946B1161E376E083EB97E017D920
:104B400080911002909111020E946B110E94E60B5D
:104B50000E94430C019739F48EE096E00E945D0CB0
:104B6000019709F4D0C060E070E084E090E00E941A
:104B7000CC0B0E94430CBC0181E090E00E94CC0B66
:104B80008EE096E00E945D0CBC0186E190E00E9400
:104B9000CC0B0E942A0F80E090E090930A0780934C
:104BA000090781E090E090930807809307078091C0
:104BB000C5069091C606892B09F06FCF8091090731
:104BC00090910A07019709F068CF0E94FF0F892B87
:104BD00009F0A1C062CF8091050790910607892B4B
:104BE00031F463E070E082E090E00E94CC0B81E061
:104BF00090E0909306078093050707EC16E0F80114
:104C000080A191A10E94F810F80180A191A10E94B9
:104C1000F810F801619371938F018E169F0679F752
:104C20008091C7069091C806019719F461E084E26B
:104C300037C08091C9069091CA06019769F461E076
:104C400085E20E94D61568EC70E080E090E00E945A
:104C5000401660E085E224C08091CB069091CC069E
:104C6000019781F463E070E082E090E00E94CC0B59
:104C700089EF95E00E945D0CBC0182E090E00E940B
:104C8000CC0B10C08091CD069091CE06019711F407
:104C900061E005C060E084E20E94D61560E086E233
:104CA0000E94D6150E94BB0D8AE3E82E86E0F82EFE
:104CB00000E010E00530110559F0C801897F089720
:104CC00039F0C8014197049718F00D31110541F4EE
:104CD000F70160817181E05CFF4F808191814FDC41
:104CE0000F5F1F4FF2E0EF0EF11C0E31110511F7AF
:104CF000D4CE87E20E94D61562E370E080E090E0B7
:104D00000E944016CACE61E070E084E090E00E940C
:104D1000CC0B81E041CF86E090E00E94AF0B809108
:104D2000CF069091D006019721F41092C2061092FE
:104D3000C106E091C106F091C2063196EB30F10553
:104D400008F0ABCE8827E556FF4F8F4F36C30E9441
:104D5000E60B1092BD061092BE061092BF0610928E
:104D6000C0060E94430C892B59F40E94F20B81115A
:104D700094CE8EE10E943115892B09F08ECEF1CFB1
:104D80006CE170E085E090E00E943C0F67C163E059
:104D900070E085E190E00E94CC0B87E090E00E94FB
:104DA000AF0B10921102109210028091D1069091D7
:104DB000D206019709F071CE0E94E60B86E10E94AF
:104DC00031158C01019709F068CE61E070E08CE14B
:104DD00090E00E94CC0B1093C2060093C106109283
:104DE000080710920707D0921102C09210022BC13F
:104DF00086E10E943115892B79F461E070E085E04D
:104E000090E00E94CC0B61E087E20E94D615B09240
:104E1000C206A092C10641CE63E070E085E090E05A
:104E20001BC18DE10E943115019781F48EE10E9432
:104E30003115019729F410920F0210920E02F6CF4D
:104E400081E090E090930F0280930E0280910E0219
:104E500090910F02019709F0FBC08EE10E9431157D
:104E6000892B09F4FEC0F4C061E084E20E94D615EB
:104E700061E070E087E190E00E94CC0B7092C20686
:104E80006092C1060E94460EDEC00E941B0C81117A
:104E90001AC08EE10E943115892B81F488E090E0E0
:104EA0000E94210E8AE090E00E94210E8CE090E0AA
:104EB0000E94210E8EE090E00E94210E60E070E0E2
:104EC00088E190E06EC061E070E088E190E00E94CF
:104ED000CC0B85E090E09093C2068093C1060E94BF
:104EE000460EDBCD61E086E20E94D61564EF71E0EC
:104EF00080E090E00E94401660E086E20E94D615B5
:104F000089EF95E00E945D0C0197D1F41092BD06E7
:104F10001092BE061092BF061092C00689EF95E06F
:104F20000E945D0C019709F4B1C089EF95E00E94E1
:104F30005D0C892B09F4AAC00E94F20B882371F33F
:104F400060E070E086E190E02CC061E085E20E94C4
:104F5000D6155092C2064092C1060EC060E085E2AE
:104F60000E94D61561E070E089E190E00E94CC0BD0
:104F70003092C2062092C1060E94460E64E873E099
:104F800080E090E0BDCE60E084E20E94D6150E94F1
:104F90001B0C81110DC00E942A0F60E070E08AE1B5
:104FA00090E00E94CC0B1092C2061092C10697CFDF
:104FB00061E070E08AE190E00E94CC0BE9E0F0E073
:104FC000F093C206E093C1068ACF86E10E943115B4
:104FD000019791F560EA7FE080E090E00E94401642
:104FE00086E10E943115019709F057CD61E070E02C
:104FF00085E090E00E94CC0B0E94FF0F892B39F0D6
:1050000061E070E08BE190E00E94CC0B04C0109254
:10501000C2061092C10663E070E085E190E00E9454
:10502000CC0B64EF71E080E090E00E94401610929B
:1050300008071092070731CD63E070E08BE190E044
:105040000E94CC0B2ACD68EE73E080E090E058CE51
:1050500063E070E085E190E00E94CC0B81E090E09D
:1050600010C0D0920F02C0920E0261E070E085E1A4
:1050700090E00E94CC0B60E087E20E94D61583E0AE
:1050800090E09093C2068093C10607CD61E070E086
:1050900086E190E00E94CC0B86E090E01CCF8BE68E
:1050A00098E00E94910B8AEE98E00E94A00B83E0AA
:1050B00099E00C943D0BCF93DF93E6E1F7E0138288
:1050C000128248EE53E060E070E0448355836683CB
:1050D00077838BEA92E09183808325ED30E03587FA
:1050E000248724ED30E03787268720ED30E0318BB0
:1050F000208B21ED30E0338B228B22ED30E0358B9D
:10510000248B26ED30E0378B268B118E128E138E7A
:10511000148EE3EBF7E01382128244835583668397
:1051200077839183808385EC90E09587848784ECF6
:1051300090E09787868780EC90E0918B808B81EC64
:1051400090E0938B828B82EC90E0958B848B86EC45
:1051500090E0978B868B118E128E138E148EA6E89C
:10516000B8E013961C921E92129714964D935D937D
:105170006D937C9317978DEB92E011969C938E9391
:105180001D96FC93EE931C9781E090E01F969C93F4
:105190008E931E9782E090E051969C938E93509749
:1051A0008FEF9FEF53969C938E93529754961C9239
:1051B000E0E5F8E080E5808381E08183E1EAF8E0E2
:1051C00083E493E091838083128213821482158298
:1051D000E7EAF8E0918380831282138214821582B9
:1051E000EDEAF8E0918380831282138214821582A3
:1051F000E3EBF8E09183808312821382148215829C
:10520000E9EBF8E091838083128213821482158285
:10521000E2E5F8E091838083128213821482158282
:10522000138612862AE02487EFE5F8E091838083D5
:105230001282138214821582EFEBF8E0918380834F
:105240001282138214821582E5ECF8E09183808348
:105250001282138214821582EBECF8E09183808332
:105260001282138214821582E1EDF8E0918380832B
:105270001282138214821582E3E0F9E01382128213
:1052800038E1A7E0B9E0ED0119923A95E9F7A1EE0E
:10529000B2E0B183A083EAEEF8E0138212821582B5
:1052A00014821682108A1786128A118A148A138A27
:1052B000168A158A108E178AABEEB2E0B183A083EE
:1052C000E4EEF8E0918380831282138214821582C7
:1052D000A7EDB8E013961C921E92129714964D9368
:1052E0005D936D937C93179741E253E011965C9325
:1052F0004E9338E01C963C931C97EBE6F8E0138243
:105300001282158214821682108A1786128A118AD6
:10531000148A138A168A158A108E178A4BEF52E068
:1053200051834083B28FA18FE5E6F8E091838083BB
:1053300080EC828388EA838382E084832583DF9103
:10534000CF9108952BD0A59F900DB49F900DA49F51
:10535000800D911D11240895A1E21A2EAA1BBB1BDA
:10536000FD010DC0AA1FBB1FEE1FFF1FA217B30731
:10537000E407F50720F0A21BB30BE40BF50B661F47
:10538000771F881F991F1A9469F76095709580950B
:1053900090959B01AC01BD01CF010895A29FB00182
:1053A000B39FC001A39F700D811D1124911DB29F59
:1053B000700D811D1124911D0895EE0FFF1F881F90
:1053C0008BBF0790F691E02D19940F931F93CF9305
:1053D000DF938230910510F482E090E0E09129099A
:1053E000F0912A0920E030E0A0E0B0E0309719F118
:1053F000408151810281138148175907C8F08417F1
:10540000950769F4109731F012960C931297139642
:105410001C9327C00093290910932A0922C0211543
:10542000310519F04217530718F49A01BD01EF0135
:10543000DF01F801DBCF21153105F9F0281B390B0D
:105440002430310580F48A819B816115710521F03A
:10545000FB019383828304C090932A0980932909D6
:10546000FE01329644C0FE01E20FF31F8193919337
:1054700022503109398328833AC02091270930917D
:105480002809232B41F42091160230911702309302
:105490002809209327092091140230911502211523
:1054A000310541F42DB73EB74091180250911902D1
:1054B000241B350BE0912709F0912809E217F30727
:1054C000A0F42E1B3F0B2817390778F0AC014E5F74
:1054D0005F4F2417350748F04E0F5F1F5093280980
:1054E000409327098193919302C0E0E0F0E0CF015F
:1054F000DF91CF911F910F910895CF93DF93009784
:1055000009F481C0FC01329713821282A09129090B
:10551000B0912A09109781F420813181820F931F65
:1055200020912709309128092817390751F5F09360
:105530002809E093270967C0ED0120E030E0CE178D
:10554000DF0740F44A815B819E0141155105F1F06E
:10555000EA01F5CFD383C28340815181840F951F27
:10556000C817D90759F488819981840F951F02962D
:10557000918380838A819B81938382832115310566
:1055800029F4F0932A09E09329093DC0E901FB833E
:10559000EA8349915991C40FD51FEC17FD0761F4B7
:1055A00080819181840F951F0296E90199838883F8
:1055B000828193819B838A83E0E0F0E012968D9153
:1055C0009C911397009719F0FD01DC01F7CF8D91A5
:1055D0009C9111979D012E5F3F4F820F931F209149
:1055E0002709309128092817390769F4309729F4D9
:1055F00010922A091092290902C013821282B093D4
:105600002809A0932709DF91CF9108956F927F9287
:105610008F929F92AF92BF92CF92DF92EF92FF92C2
:105620000F931F93CF93DF93009781F4CB01DF910A
:10563000CF911F910F91FF90EF90DF90CF90BF908F
:10564000AF909F908F907F906F90BFCEFC01E60F40
:10565000F71F9C0122503109E217F30708F4A5C097
:10566000EC01D9010D911C91119706171707A8F0AD
:105670000530110508F497C0C801049786179707ED
:1056800008F491C002501109061B170B01931193E6
:105690006D937C93CF0131DF86C05B01A01AB10A04
:1056A0004C01800E911EA0912909B0912A09612C0C
:1056B000712CE12CF12C109709F446C08D919C912E
:1056C0001197A815B905B1F56C0142E0C40ED11CC3
:1056D000CA14DB0478F14C018A189B08640142E08B
:1056E000C40ED11C1296BC9012971396AC91B5E0E3
:1056F000CB16D10440F0B282A38391828082D9017B
:105700006D937C9309C00E5F1F4F800F911FF901AD
:1057100091838083EB2DFA2FE114F10431F0D7014E
:105720001396FC93EE9312973EC0F0932A09E093F0
:10573000290939C06816790608F43C017D011296E2
:105740000D90BC91A02DB7CF809127099091280989
:1057500088169906E1F466167706C8F4809114025B
:1057600090911502009741F48DB79EB740911802B1
:1057700050911902841B950BE817F907B0F4F093C8
:105780002809E0932709F901718360830CC0CB01DC
:105790001CDE7C01009749F0A801BE011BD0CE01A0
:1057A000ACDEC70104C0CE0102C080E090E0DF9112
:1057B000CF911F910F91FF90EF90DF90CF90BF900E
:1057C000AF909F908F907F906F90089581E090E0D0
:1057D000F894C6C2FB01DC0102C001900D92415059
:1057E0005040D8F70895FB01DC018D91019080199C
:1057F0000110D9F3990B0895FB01DC0101900D9282
:105800000020E1F708952F923F924F925F926F929E
:105810007F928F929F92AF92BF92CF92DF92EF9240
:10582000FF920F931F93CF93DF93CDB7DEB72B97E4
:105830000FB6F894DEBF0FBECDBF6C017B018A01AD
:10584000FC0117821682838181FFBFC1CE010196C0
:105850003C01F6019381F70193FD859193FF8191BE
:105860007F01882309F4ADC1853239F493FD859118
:1058700093FF81917F01853221F4B60190E0D6D16A
:10588000E8CF912C212C312CFFE1F315D8F08B328D
:1058900079F038F4803279F08332A1F4232D20613D
:1058A0001DC08D3261F0803369F4232D216016C054
:1058B000832D8260382EE32DE4603E2E2AC0F32D26
:1058C000F8601DC037FC2DC020ED280F2A3040F0B5
:1058D0008E32B9F436FC75C1232D2064322E19C0E6
:1058E00036FE06C08AE0989E200D1124922E11C02B
:1058F000EAE02E9E200D1124222EF32DF0623F2E81
:1059000008C08C3621F4832D8068382E02C088367A
:1059100041F4F70193FD859193FF81917F018111FE
:10592000B3CF982F9F7D9554933028F40C5F1F4F71
:105930009FE399830DC0833631F0833771F083354F
:1059400009F055C020C0F801808189830E5F1F4F88
:1059500088248394912C530112C02801F2E04F0E49
:10596000511CF801A080B18036FE03C0692D70E0A3
:1059700002C06FEF7FEFC5014ED14C018201F32DC4
:10598000FF773F2E15C0280122E0420E511CF8017E
:10599000A080B18036FE03C0692D70E002C06FEFB9
:1059A0007FEFC5012DD14C01F32DF0683F2E820110
:1059B00033FC19C0822D90E088169906A0F4B60138
:1059C00080E290E033D12A94F5CFF50137FC859140
:1059D00037FE81915F01B60190E028D121102A9411
:1059E00021E0821A91088114910479F7E1C084368C
:1059F00011F0893639F5F80137FE07C060817181F1
:105A0000828193810C5F1F4F08C060817181072ED6
:105A1000000C880B990B0E5F1F4FF32DFF763F2E66
:105A200097FF09C090958095709561957F4F8F4F36
:105A30009F4FF0683F2E2AE030E0A30133D1882E3B
:105A4000861844C0853731F4232D2F7EB22E2AE0EC
:105A500030E025C0932D997FB92E8F36C1F018F410
:105A6000883579F0AEC0803719F0883721F0A9C0A9
:105A7000E92FE061BE2EB4FE0DC0FB2DF460BF2EF9
:105A800009C034FE0AC0292F2660B22E06C028E0C5
:105A900030E005C020E130E002C020E132E0F80152
:105AA000B7FE07C060817181828193810C5F1F4FB7
:105AB00006C06081718180E090E00E5F1F4FA301FE
:105AC000F1D0882E8618FB2DFF773F2E36FE0DC0B5
:105AD000232D2E7FA22E891458F434FE0BC032FCE5
